:100000000C9484250C94B5250C94B5250C94B52539
:100010000C94B5250C94B5250C94B5250C94B525F8
:100020000C94B5250C94B5250C94B5250C94B525E8
:100030000C94B5250C94B5250C94B5250C94B525D8
:100040000C94B5250C94263A0C94B5250C94B52542
:100050000C94B5250C94B5250C9401390C944EC51F
:100060000C94B5250C948AA70C9480A70C94B52504
:100070000C94B5250C94B5250C94B5250C94B52598
:100080000C94B5250C94B5250C94B5250C94B52588
:100090000C94B5250C94B5250C94B5250C94B52578
:1000A0000C94B5250C94B5250C94B5250C94B52568
:1000B0000C94B5250C94B5250C94B5250C94B52558
:1000C0000C94B5250C94B5250C94B5250C94B52548
:1000D0000C94B5250C94B5250C94B5250C94B52538
:1000E0000C94B525084AD73B3BCE016E84BCBFFDBE
:1000F000C12F3D6C74319ABD56833DDA3D00C77FF8
:1001000011BED9E4BB4C3E916BAAAABE0000008090
:100110003F05A84CCDB2D44EB93836A9020C50B91F
:10012000918688083CA6AAAA2ABE000000803F004B
:100130000C94D0350C94512D0C9421320C944735ED
:100140000C9425C40C9460A90C94CF2B0C9471C40E
:100150000C9496320C946E500C9463560C949850F8
:100160000C9449320C948C500C942B320C948F8646
:100170000C94202F0C94C24F0C945A6A0C941C2B94
:100180000C9462510C94D35F0C94D3520C9464A9D8
:100190000C94E4590C9420C40C9439C40C9445A9D3
:1001A0000C94B52A0C94FA310C946E350C949E3252
:1001B0000C94012C0C944B5E0C94892A0C94592CB1
:1001C0000C94ED460C9476A90C947E2F0C946D4DF6
:1001D0000C944BC40C9480500C94AC2A0C94263292
:1001E0000C948D870C94FC310C942FC40C94938741
:1001F0000C949EC40C944C300C945F890C947BA995
:100200000C9405260C947D2F0C9418C40C9494C463
:100210000C94F32E0C94402C0C945D2C0C94956350
:100220000C94F0A80C9480A90C94572E0C941C5D8F
:100230000C945DC40C94D42A0C9441A90C94FF2E08
:100240000C948E2B0C945C390C94A7630C94F331B2
:100250000C941C320C9486500C94B6460C949187E6
:100260000C94EAA80C9481860C942F890C94B2C447
:100270000C94AB320C94C74F0C943BA90C945AA924
:100280000C94ED2E0C9468A90C94542B0C94BC2B5C
:100290000C94932D0C945B2C0C94EBA80C948AC4B6
:1002A0000C946EA90C9449A90C947CA90C947A50D6
:1002B0000C94E82B0C94232F0C9480C40C94672B83
:1002C0000C94FBD90C9468500C94752B0C944DA98C
:1002D0000C94BBE10C942F2B0C94A9450C9467C48F
:1002E0000C9472A90C9430320C94BD4F0C9456A906
:1002F0000C949E2E0C9414580C94A92B0C947A2CCC
:100300000C944F450C94A8C40C9450A90C9453C45D
:100310000C945F2C0C94CFAA0C94DD2A0C948F873C
:100320000C9470540C949C2D0C94C82A0C94AC47DB
:100330000C9443C40C9492500C949E500C947450A2
:100340000C943B2B0C94F92E4E414E494E49545976
:10035000494E46CDCCCC3D0AD7233C17B7D1387790
:10036000CC2B329595E6241FB14F0A0000204100A6
:1003700000C84200401C4620BCBE4CCA1B0E5AAEF0
:10038000C59D7400407A10F35A00A0724E180900FF
:1003900010A5D4E80000E87648170000E40B5402EA
:1003A0000000CA9A3B000000E1F505000080969825
:1003B00000000040420F000000A086010000001075
:1003C0002700000000E803000000006400000000B7
:1003D000000A00000000000100000000002C76D898
:1003E00088DC674F0823DFC1DFAE59E1B1B796E57E
:1003F000E3E453C63AE651997696E8E6C28426EBE2
:10040000898C9B62ED407C6FFCEFBC9C9F40F2BAF4
:10041000A56FA5F490055A2AF75C936B6CF9676D8C
:10042000C11BFCE0E40D47FEF520E6B500D0ED90E1
:100430002E0300943577050080841E080000204EAE
:100440000A000000C80C333333330F986E12831147
:1004500041EF8D2114893BE65516CFFEE6DB18D11E
:10046000844B381BF77C1D901DA4BBE424203284F0
:10047000725E228100C9F124ECA1E53D27434F4D76
:100480004D554E49434154494F4E004452595255DF
:100490004E004552524F525300494E464F0045437D
:1004A000484F0041425300504C4100363726033C30
:1004B0003D380F2E303E131A1C180AFF4308090856
:1004C0004400014D343130004D313132004D313076
:1004D0003800D09ED0A1D0A2D090D09DD09ED092F6
:1004E000D09BD095D09DD09E2E20005072696E7406
:1004F00065722073746F7070656420647565207414
:100500006F206572726F72732E204669782074684E
:1005100065206572726F7220616E6420757365204C
:100520004D39393920746F20726573746172742E7D
:10053000202854656D7065726174757265206973E9
:100540002072657365742E20536574206974206170
:10055000667465722072657374617274696E67295E
:100560000A004E6F20436865636B73756D20776971
:100570007468206C696E65206E756D6265722C20E2
:100580004C617374204C696E653A20004E6F2043B5
:100590006865636B73756D2077697468206C696E2C
:1005A00065206E756D6265722C204C617374204CF1
:1005B000696E653A2000636865636B73756D206DC5
:1005C00069736D617463682C204C617374204C698D
:1005D0006E653A20004C696E65204E756D626572DD
:1005E000206973206E6F74204C617374204C696EA7
:1005F00065204E756D6265722B312C204C617374D1
:10060000204C696E653A20004D3131300053442052
:1006100072656164206572726F720A002121204B3D
:10062000494C4C20636175736564206279204B49A5
:100630004C4C20627574746F6E2F70696E0A0021C5
:1006400021204B494C4C20636175736564206279AD
:1006500020746F6F206D75636820696E61637469C3
:1006600076652074696D65202D2063757272656EE4
:100670007420636F6D6D616E643A200062757379EA
:100680003A2070617573656420666F7220696E70C0
:1006900075740A00627573793A20706175736564C8
:1006A00020666F7220757365720A00627573793AFD
:1006B0002070726F63657373696E670A0053442D0F
:1006C000D0BAD0B0D180D182D0B020D0B8D0B7D0FD
:1006D000B2D0BBD0B5D187D0B5D0BDD0B0005344D7
:1006E0002DD0BAD0B0D180D182D0B020D0B2D181BB
:1006F000D182D0B0D0B2D0BBD0B5D0BDD0B000D0B8
:10070000A1D0B4D0B5D0BBD0B0D0B9D182D0B520B3
:10071000D181D0B1D180D0BED18100D09FD0A0D026
:1007200098D09DD0A2D095D0A020D09ED0A1D0A20C
:10073000D090D09DD09ED092D09BD095D09D0025BA
:10074000533A20255300D0A3D091D098D0A2D09E68
:100750002E20005072696E7465722068616C746539
:10076000642E206B696C6C28292063616C6C656455
:10077000210A006563686F3A004572726F723A0031
:1007800020496E76616C6964206578747275646561
:1007900072200020746F6F206C6F6E672065787414
:1007A000727573696F6E2070726576656E746564BC
:1007B0000A0020636F6C6420657874727573696FCA
:1007C0006E2070726576656E7465640A0047322F1C
:1007D00047332062616420706172616D6574657277
:1007E000730A00D0A1D0BED0BD2E2E2E00D09FD136
:1007F00080D0BED0B4D0BED0BBD0B6D0B8D182D11C
:100800008C2E2E2E00D09DD0B5D18220D0B4D0B267
:10081000D0B8D0B6D0B5D0BDD0B8D18F2E00456EEF
:10082000642066696C65206C6973740A00426567B0
:10083000696E2066696C65206C6973740A004E6F7E
:10084000206D656469610A00286E6F2066696C65B9
:10085000290043757272656E742066696C653A2072
:10086000005344207072696E74696E6720627974F7
:100870006520004E6F74205344207072696E746955
:100880006E670A002E0A0044656C6574696F6E20FD
:100890006661696C65642C2046696C653A20004687
:1008A000696C652064656C657465643A00256973DC
:1008B0000025696D20256973002569682025696D0B
:1008C0002025697300256964202569682025696DE4
:1008D00020256973002569792025696420256968C8
:1008E0002025696D20256973005072696E7420742B
:1008F000696D653A2000496E76616C6964205069C3
:100900006E204D6F64650A006F6B006F6666009E17
:1009100004990492048B047D0444454255473A00EF
:100920004D3131322053687574646F776E004D31EC
:1009300031332053004D6567755072696E74204FD6
:1009400046462E004348414D4245525F54454D5066
:100950004552415455524500424142595354455025
:1009600050494E470041524353004D4F54494F4E5A
:100970005F4D4F44455300544845524D414C5F50E4
:10098000524F54454354494F4E004C4F4E475F46DB
:10099000494C454E414D45004155544F5245504FED
:1009A00052545F53445F535441545553005344438E
:1009B0004152440050524F4D50545F535550504F88
:1009C000525400454D455247454E43595F504152A0
:1009D00053455200434153455F4C494748545F4299
:1009E00052494748544E45535300544F47474C458E
:1009F0005F4C494748545300534F46545741524562
:100A00005F504F574552004255494C445F50455244
:100A100043454E54004C4556454C494E475F444172
:100A20005441005A5F50524F42450052554E4F5567
:100A300054004155544F4C4556454C005052494E78
:100A4000545F4A4F420050524F4752455353004162
:100A500055544F5245504F52545F54454D500056D7
:100A60004F4C554D455452494300454550524F4D0A
:100A70000042494E4152595F46494C455F545241EC
:100A80004E534645520053455249414C5F584F4ED4
:100A90005F584F4646004649524D574152455F4EBA
:100AA000414D453A4D61726C696E20322E302E37C1
:100AB00020284A616E2032342032303231203230E8
:100AC0003A32363A34302920534F555243455F432A
:100AD0004F44455F55524C3A68747470733A2F2FE7
:100AE0006769746875622E636F6D2F4D61726C69F2
:100AF0006E4669726D776172652F4D61726C696EB9
:100B00002050524F544F434F4C5F56455253494F1C
:100B10004E3A312E30204D414348494E455F54599D
:100B200050453A4D6567755072696E74204558544A
:100B300052554445525F434F554E543A3120555516
:100B400049443A63656465326132662D34316132FD
:100B50002D343734382D396231322D6335356336D3
:100B6000326633363766660A002F2F20004D313447
:100B70003520533C696E6465783E206F7574206F34
:100B8000662072616E67652028302D31290A0020A9
:100B90005200416363656C65726174696F6E3A20DF
:100BA00050003F4A206F7574206F662072616E6737
:100BB000652028302E303120746F20302E33290AE2
:100BC000004F4646004F4E0020580020204D6178CF
:100BD0003A2000200020204D696E3A2000536F66B5
:100BE0007420656E6473746F70733A200046523AD5
:100BF0000020466C6F773A200050726F7465637402
:100C000065642050696E0A0020643A0020693A0049
:100C100020703A00496E76616C6964206578747260
:100C2000756465720A0064697300656E0043290A81
:100C30000061626C656420286D696E2074656D705A
:100C40002000436F6C64206578747275646573204E
:100C50006172652000D0A1D0BDD0B0D187D0B0D016
:100C6000BBD0B020D0BFD0B0D180D0BAD183D0B962
:100C70002025732573257300D0A1D0BCD0B5D189B0
:100C8000D0B5D0BDD0B8D18F20D0BFD180D0B8D012
:100C9000BCD0B5D0BDD0B5D0BDD18B004572723AB5
:100CA00020546F6F206661722100546F6F2066615F
:100CB000722066726F6D207265666572656E63651F
:100CC00020706F696E740A00454550524F4D206484
:100CD000697361626C65640A004D383400446F6E5C
:100CE00065207072696E74696E672066696C650A4A
:100CF000004D3737004D333100496E76616C6964C1
:100D00002065787472756465720A004361703A00F8
:100D1000220A00656E7175657565696E672022002F
:100D20006F6B00526573656E643A200020573A007D
:100D3000D09ED185D0BBD0B0D0B6D0B4D0B5D0BDC8
:100D4000D0B8D0B52E2E2E00D09DD0B0D0B3D1804B
:100D5000D0B5D0B22E2E2E00452025530020573A74
:100D600000D09ED185D0BBD0B0D0B6D0B4D0B5D055
:100D7000BDD0B8D0B520D181D182D0BED0BBD0B04B
:100D80002E2E2E00D09DD0B0D0B3D180D0B5D0B211
:100D900020D181D182D0BED0BBD0B02E2E2E002348
:100DA000646566696E652044454641554C545F0054
:100DB0004B6420004B6920004B70200050494420B8
:100DC0004175746F74756E652066696E69736865C8
:100DD00064212050757420746865206C61737420E0
:100DE0004B702C204B6920616E64204B6420636F34
:100DF0006E7374616E74732066726F6D2062656CC1
:100E00006F7720696E746F20436F6E6669677572C5
:100E10006174696F6E2E680A0050494420417574F0
:100E20006F74756E65206661696C656421207469F4
:100E30006D656F75740A00504944204175746F7474
:100E4000756E65206661696C6564212054656D70FE
:100E50006572617475726520746F6F206869676868
:100E60000A00204B643A2000204B693A2000204BB6
:100E7000703A20000A20436C617373696320504903
:100E800044200A002054753A2000204B753A200077
:100E9000206D61783A2000206D696E3A2000206450
:100EA0003A200020626961733A2000504944204191
:100EB00075746F74756E652073746172740A005076
:100EC0004944204175746F74756E65206661696C64
:100ED0006564212054656D7065726174757265205A
:100EE000746F6F20686967680A00D090D0B2D182B1
:100EF000D0BED0BFD0BED0B4D0B1D0BED1802050F3
:100F0000494400504944204175746F74756E6520E2
:100F10006661696C65642120426164206578747241
:100F200075646572206E756D6265720A0045727235
:100F30003A207574663820666F6E74206E6F742068
:100F4000696E697469616C697A65642E00457272B4
:100F50003A207574663820666F6E74206E6F742048
:100F6000696E697469616C697A65642E0045727294
:100F70003A207574663820666F6E74206E6F742028
:100F8000696E697469616C697A65642E00D0A1D15B
:100F900082D0BED0BB2C2020094300D09AD0B0D044
:100FA000BCD0B5D180D0B02C094300D094D0B8D0FB
:100FB000B0D0BC2E20D184D0B8D0BBD0B0D0BC2E05
:100FC000004520D0B220D0BCD0BCC2B30020082045
:100FD000D0A4D0B0D0BAD182D0BED1800020082C0D
:100FE0002009D0A120D0BCD0B0D0BAD18100200837
:100FF0002C2009D0A12020D0BCD0B8D0BD00D092E8
:10100000D18BD0BAD0BB00D092D0BAD0BB00D09098
:10101000D0B2D182D0BED182D0B5D0BCD0BFD0B5F5
:10102000D1802E00D09FD0B5D180D0B5D0BCD0B566
:10103000D189D0B5D0BDD0B8D0B520D0BCD0B8D033
:10104000BD00D0A1D0BAD0BED1802ED0BCD0B8D0F7
:10105000BD00D0A1D0BAD0BED1802ED0BCD0B0D0EF
:10106000BAD181204500D0A1D0BAD0BED1802ED037
:10107000BCD0B0D0BAD181205A00D0A1D0BAD0BE55
:10108000D1802ED0BCD0B0D0BAD181205900D0A10F
:10109000D0BAD0BED1802ED0BCD0B0D0BAD18120B1
:1010A0005800D0A3D181D0BAD0BED1802ED0BCD030
:1010B000B0D0BAD181204500D0A3D181D0BAD0BE62
:1010C000D1802ED0BCD0B0D0BAD181205A00D0A3CC
:1010D000D181D0BAD0BED1802ED0BCD0B0D0BAD1C0
:1010E00081205900D0A3D181D0BAD0BED1802ED0DA
:1010F000BCD0B0D0BAD181205800D0A3D181D0BA11
:10110000D0BED1802ED0BFD183D182D0B5D1882E90
:1011100000D0A3D181D0BAD0BED1802ED0B2D1829E
:10112000D18FD0B3D0B8D0B22E00D0A3D181D0BA55
:10113000D0BED180D0B5D0BDD0B8D0B5004520D17B
:1011400088D0B0D0B32FD0BCD0BC005A20D188D02A
:10115000B0D0B32FD0BCD0BC005920D188D0B0D0F3
:10116000B32FD0BCD0BC005820D188D0B0D0B32F82
:10117000D0BCD0BC00D094D180D183D0B3D0B8D073
:10118000B520D0BDD0B0D181D182D180D0BED0B970
:10119000D0BAD0B8004D34323800D0A4D0B8D0BBCB
:1011A000D0B0D0BCD0B5D0BDD18200D0A2D0B5D007
:1011B000BCD0BFD0B5D180D0B0D182D183D180D0C6
:1011C000B000D0A8D0B0D0B3D0BED0B22FD0BCD059
:1011D000BC00D09ED182D0BAD0BBD0BED0BD2E2014
:1011E000D183D0B7D0BBD0B000D0A3D181D0BAD0FA
:1011F000BED180D0B5D0BDD0B8D0B52C20D0BCD019
:10120000BC2FD1813200D0A1D0BAD0BED180D0BE07
:10121000D181D182D18C2C20D0BCD0BC2FD18100E7
:10122000D0A3D181D182D0B0D0BDD0BED0B22ED18A
:1012300081D0BCD0B5D1892ED0B4D0BED0BCD0B076
:1012400000D09AD0BED0BDD184D0B8D0B3D183D194
:1012500080D0B0D186D0B8D18F00D0A1D182D0BEFD
:10126000D0BB2C2020094300D0A1D0BED0BFD0BB22
:10127000D0BE2C20094300D09AD183D0BBD0B5D1A9
:101280008000D09AD0BED0BDD184D0B8D0B3D183A5
:10129000D180D0B0D186D0B8D18F00D09DD0B02031
:1012A000D0B1D0B0D0B7D0BED0B2D18BD0B520D0D5
:1012B000BFD0B0D180D0B0D0BCD0B5D182D180D198
:1012C0008B00D09DD0B0D0B3D180D0B5D0B2202487
:1012D00020D0BFD180D0B0D0B2D0BAD0B000D0949E
:1012E000D180D183D0B3D0B8D0B520D0BDD0B0D1CB
:1012F00081D182D180D0BED0B9D0BAD0B800D09E32
:10130000D181D0BDD0BED0B2D0BDD0BED0B520D05E
:10131000BCD0B5D0BDD18E003F00D09DD0B0D0B7ED
:10132000D0B0D0B400D0A1D182D0BED0BF00D09F69
:10133000D0B5D187D0B0D182D18C20D18120534477
:1013400020D0BAD0B0D180D182D18B00D0A1D0BC76
:10135000D0B5D0BDD0B8D182D18C20534420D0BAE2
:10136000D0B0D180D182D183004D323100D09AD01B
:10137000BED0BDD184D0B8D0B3D183D180D0B0D1CC
:1013800086D0B8D18F00D0A2D0B5D0BCD0BFD0B558
:10139000D180D0B0D182D183D180D0B000D094D0D0
:1013A000B2D0B8D0B6D0B5D0BDD0B8D0B500D09FEF
:1013B000D180D0BED0B4D0BED0BBD0B6D0B8D18250
:1013C000D18C20D0BFD0B5D187D0B0D182D18C0004
:1013D000D09DD0B0D181D182D180D0BED0B8D182C1
:1013E000D18C00D09ED181D182D0B0D0BDD0BED022
:1013F000B2D0B8D182D18C20D0BFD0B5D187D0B0F7
:10140000D182D18C00D09FD0B0D183D0B7D0B020C2
:10141000D0BFD0B5D187D0B0D182D0B800D09DD0C8
:10142000B5D18220534420D0BAD0B0D180D182D15E
:101430008B00D093D0BBD0B0D0B2D0BDD18BD0B9BF
:1014400020D18DD0BAD180D0B0D0BD003F00D09D8A
:10145000D0B0D187D0B0D0BBD0BE20D0BFD0B5D116
:1014600087D0B0D182D0B800D09ED182D0BCD0B5C8
:10147000D0BDD0B000D09FD0B5D187D0B0D182D16F
:101480008C0043616E6E6F7420656E74657220739C
:1014900075626469723A2000022E2E00D09ED181BE
:1014A000D0BDD0BED0B2D0BDD0BED0B520D0BCD083
:1014B000B5D0BDD18E00D094D0B2D0B8D0B6D0B512
:1014C000D0BDD0B8D0B500D092D18BD0BAD0BBD1DE
:1014D0008ED187D0B8D182D18C20D0B4D0B2D0B840
:1014E000D0B3D0B0D182D0B5D0BBD0B8004D383455
:1014F00000D09FD0B0D180D0BAD0BED0B2D0BAD0B8
:10150000B02058595A0047323800D09ED181D0BD02
:10151000D0BED0B2D0BDD0BED0B520D0BCD0B5D01A
:10152000BDD18E00D09DD0B0D0B3D180D0B5D0B2D7
:10153000202420D181D0BED0BFD0BBD0BE00D09D52
:10154000D0B0D0B3D180D0B5D0B2202420D181D1B9
:1015500082D0BED0BB00D0A2D0B5D0BCD0BFD0B559
:10156000D180D0B0D182D183D180D0B000A704A3E4
:1015700004D09ED185D0BBD0B0D0B6D0B4D0B5D039
:10158000BDD0B8D0B500D09FD180D0B5D0B4D0BD3B
:10159000D0B0D0B3D180D0B5D0B2202400D09AD171
:1015A00083D0BBD0B5D18000D0A1D182D0BED0BB7A
:1015B0002C2020094300D0A1D0BED0BFD0BBD0BECC
:1015C0002C20094300D09ED181D0BDD0BED0B2D056
:1015D000BDD0BED0B520D0BCD0B5D0BDD18E00D04E
:1015E0009FD0BED182D0BED0BA00D09AD183D0BB1A
:1015F000D0B5D18000D0A1D182D0BED0BB2C2020CC
:10160000094300D0A1D0BED0BFD0BBD0BE2C200992
:101610004300D0A1D0BAD0BED180D0BED181D1827A
:10162000D18C00D09ED181D0BDD0BED0B2D0BDD0A3
:10163000BED0B520D0BCD0B5D0BDD18E00080090B2
:10164000A85C0197250800ABAD38005F250800AF06
:10165000CF9001CF230800D1D11E00B1232568759A
:101660003A25303268750025303268753A253032B7
:10167000687500256875642025303268753A253014
:1016800032687500202020202020200020202020EB
:10169000001FE0201020102010102010202010200B
:1016A0001030300840048003001FE03FF03FF03F5F
:1016B000F01FE01FE03FF03FF03FF00FC007800356
:1016C000003FFFF038007030FC3020FC1020781014
:1016D0002030102C00D02E31D02F7BD02F7BD02E5D
:1016E00031D02C00D020301020781020FC1030FC9D
:1016F000303800703FFFF03FFFF038007031863027
:101700002387102787902F87D02F03D020301020D9
:1017100078102078102030102F03D02F87D0278703
:10172000902387103186303800703FFFF01FFFF89C
:101730001FFFF8041040020820020820041040088F
:10174000208010410010410008208004104000005B
:10175000001FFFF81FFFF8D09FD0B5D187D0B0D1C0
:1017600082D18C20D0BED182D0BCD0B5D0BDD0B576
:10177000D0BDD0B0004D32350050617573696E67D1
:101780002E2E2E006F70656E005452494747455209
:101790004544003A20007A5F6D617800795F6D61A1
:1017A0007800785F6D696E005265706F7274696E53
:1017B0006720656E6473746F7020737461747573E1
:1017C0000A00D09ED188D0B8D0B1D0BAD0B020D045
:1017D000BFD0B0D180D0BAD0BED0B2D0BAD0B800CD
:1017E0000000000000004843000048430000484259
:1017F00000004842000080405761726E696E673A8F
:1018000020486F6D696E672042756D70204469765F
:1018100069736F72203C20310A000202040000A0AC
:10182000400000A040000000400000484300004885
:101830004300004843FF01010000484300004843C3
:10184000000048430000000000000000000000000D
:1018500048617264636F6465642044656661756C99
:10186000742053657474696E6773204C6F6164658E
:10187000640A0000009643000096430000A0400068
:1018800000C8410000A0420000A04200007A4500CC
:1018900000FA43B80B0000B80B0000640000001011
:1018A0002700003B200020440020490020204D3329
:1018B00030312050005049442073657474696E675C
:1018C000733A0020460020420020480020204D317D
:1018D00034352053004D6174657269616C20686510
:1018E0006174757020706172616D65746572733AB0
:1018F0000020204D323036205800486F6D65206F33
:1019000066667365743A00204A0020530020204D1B
:10191000323035204200416476616E6365643A205E
:10192000423C6D696E5F7365676D656E745F746967
:101930006D655F75733E20533C6D696E5F666565CE
:1019400064726174653E20543C6D696E5F747261AF
:1019500076656C5F66656564726174653E204A3CBD
:101960006A756E635F6465763E0020540020520005
:1019700020204D323034205000416363656C657225
:101980006174696F6E2028756E6974732F733229C4
:101990003A20503C7072696E745F616363656C3E9F
:1019A00020523C726574726163745F616363656C3D
:1019B0003E20543C74726176656C5F616363656C54
:1019C0003E0020204D3230312058004D6178696D45
:1019D000756D20416363656C65726174696F6E201B
:1019E00028756E6974732F7332293A0020204D32A6
:1019F00030332058004D6178696D756D20666565DE
:101A00006472617465732028756E6974732F73290D
:101A10003A0053746570732070657220756E697436
:101A20003A0020440020204D323030205300204422
:101A3000697361626C65640A0046696C616D656E0C
:101A4000742073657474696E67733A0020204D3199
:101A500034392043203B20556E69747320696E2011
:101A600043656C736975730A0020286D6D29002029
:101A700020473231202020203B20556E697473208E
:101A8000696E206D6D0024F4D43050C38E20C2A244
:101A90004017828B7011127A910D816CD90AA8615E
:101AA000E108C7586607615143061E4B5D05C145F5
:101AB000A7041A411104093D9803713931034036D6
:101AC000DB0265339102D4305402802E1D02632C58
:101AD000EE01752AC501B028A001102781018F25CC
:101AE00064012B244B01E0223401AC211F018D2025
:101AF0000D01801FFC00841EED00971DDF00B81C47
:101B0000D200E61BC600201BBC00641AB200B2194A
:101B1000A8000A19A0006A189900D117910040176F
:101B20008B00B516840031167E00B31579003A1586
:101B30007300C7146F0058146A00EE136600881310
:101B4000630025135E00C7125B006C12570015126C
:101B50005400C111510070114F0021114B00D610DB
:101B600049008D1047004610440002104200C00F8B
:101B70004000800F3E00420F3C00060F3B00CB0EA2
:101B80003800930E37005C0E3500270E3400F30D3D
:101B90003200C10D3100900D3000600D2E00320D6D
:101BA0002D00050D2C00D90C2B00AE0C2900850C46
:101BB00029005C0C2700350C27000E0C2600E80BD2
:101BC0002400C40B2400A00B23007D0B23005A0B20
:101BD0002100390B2100180B2000F80A1F00D90A38
:101BE0001E00BB0A1E009D0A1D00800A1D00630A1C
:101BF0001C00470A1B002C0A1B00110A1A00F709D7
:101C00001A00DD091900C4091900AB09190092096D
:101C100017007B091800630917004C0916003609E4
:101C20001600200916000A091500F5081500E0083D
:101C30001400CC081400B8081400A408140090087C
:101C400013007D0812006B081300580812004608A4
:101C500012003408110023081100120811000108B5
:101C60001100F0071000E0071000D0071000C007B7
:101C70001000B0070F00A107100091070E008307A6
:101C80000F0074070F0065070E0057070E00490785
:101C90000E003B070D002E070E0020070D00130756
:101CA0000D0006070D00F9060C00ED060D00E0061C
:101CB0000C00D4060C00C8060C00BC060C00B006D4
:101CC0000C00A4060B0099060C008D060B00820682
:101CD0000B0077060B006C060B0061060A00570626
:101CE0000B004C060A0042060A0038060A002E06BF
:101CF0000A0024060A001A060A0010060900070650
:101D00000A00FD050900F4050900EB050900E205DC
:101D10000900D9050900D0050900C7050900BE055D
:101D20000900B5050800AD050800A50509009C05DA
:101D30000800940508008C050800840508007C054F
:101D40000800740508006C050700650508005D05BE
:101D50000700560508004E05070047050700400527
:101D6000080038050700310507002A05070023058C
:101D700007001C050600160507000F0507000805EB
:101D8000060002050700FB040600F5040700EE0448
:101D90000600E8040600E2040700DB040600D504A0
:101DA0000600CF040600C9040600C3040600BD04F3
:101DB0000600B7040600B1040500AC040600A60442
:101DC0000600A00405009B0406009504050090048D
:101DD00006008A04050085040500800406007A04D4
:101DE000050075040500700405006B040500660419
:101DF0000500610405005C04050057040500520459
:101E000005004D04050048040500430405003E0498
:101E100004003A04050035040500300404002C04D5
:101E2000050027040400230405001E0404001A040E
:101E3000040016040500110404000D040400090444
:101E400005000404040000040400FC030400F8037B
:101E50000400F4030400F0030400EC030400E803AE
:101E60000400E4030400E0030400DC030400D803DE
:101E70000400D4030400D0030400CC030400C8030E
:101E80000300C503030024F404D9201BC40C5C0E1A
:101E90009804C4095F0265077101F405F900FB04A9
:101EA000B30048048700C1036900580355000303C9
:101EB0004500BE023A008402310053022A00290282
:101EC000250004022000E4011C00C8011900AF0134
:101ED00017009801140084011300710110006101C2
:101EE000100051010E0043010D0036010B002B01C3
:101EF0000B0020010B00150109000C010900030172
:101F00000800FB000800F3000800EB000700E400F5
:101F10000600DE000600D8000600D2000600CC0055
:101F20000500C7000500C2000500BD000400B9009F
:101F30000400B5000400B1000400AD000400A900D5
:101F40000400A5000300A20003009F0004009B0002
:101F50000300980003009500020093000300900026
:101F600003008D0002008B00030088000200860041
:101F7000020084000300810002007F0002007D0057
:101F800002007B0002007900020077000100760069
:101F900002007400020072000100710002006F0074
:101FA00002006D0001006C0002006A00010069007F
:101FB0000200670001006600010065000100640086
:101FC00002006200010061000100600001005F008A
:101FD00002005D0001005C0001005B0001005A008E
:101FE000010059000100580001005700010056008F
:101FF000010055000100540001005300000053008F
:1020000001005200010051000100500001004F008A
:1020100001004E0000004E0001004D0001004C0088
:1020200001004B0000004B0001004A000100490084
:102030000100480000004800010047000100460080
:10204000000046000100450000004500010044007A
:102050000100430000004300010042000000420074
:1020600001004100000041000100400001003F006C
:1020700000003F0001003E0000003E0001003D0066
:1020800000003D0001003C0000003C0000003C005E
:1020900001003B0000003B0001003A0000003A0054
:1020A000010039000000390001003800000038004C
:1020B0000000380001003700000037000100360042
:1020C0000000360000003600010035000000350039
:1020D000000035000100340000003400000034002E
:1020E0000100330000003300000033000100320023
:1020F0000000320000003200010031000000310019
:10210000000031000100300000003000000030000D
:1021100001002F0000002F0000002F0000002F0002
:1021200001002E0000002E0000002E0001002D00F6
:1021300000002D0000002D0000002D0001002C00EB
:1021400000002C0000002C0000002C0001002B00DF
:1021500000002B0000002B0000002B0001002A00D3
:1021600000002A0000002A0000002A0001002900C7
:1021700000002900000029000000290000002900BB
:1021800001002800000028000000280000002800AE
:1021900000002800010027000000270000002700A1
:1021A0000000270000002700010026000000260094
:1021B0000000260000002600000026000100250087
:1021C000000025000000250000002500000025007B
:1021D000000025000100240000002400000024006D
:1021E0000000240000002400010023000000230060
:1021F0000000230000002300000023000000230053
:102200000000230001002200000022000000220044
:102210000000220000002200000022000100210036
:10222000000021000000210000002100000021002A
:10223000000021000000210001002000000020001B
:10224000000020000000200000002000000020000E
:10225000000020000000200001001F0000001F00FF
:1022600000001F0000001F0000001F0000001F00F2
:1022700000001F0001001E0000001E0000001E00E4
:1022800000001E000000043700001E290000511B42
:1022900000005810000010090000CC040000780273
:1022A00000004101000020436F756E7420583A0011
:1022B000D0A1D182D0BED0BB2C2020094300453113
:1022C00000626564002C2073797374656D207374EB
:1022D0006F7070656421204865617465725F494460
:1022E0003A2000D0A0D0B0D0B7D0BED0B3D180D0EB
:1022F000B5D0B220D0BDD0B520D183D0B4D0B0D02D
:10230000BBD181D18F0048656174696E67206661B9
:10231000696C656400D0A3D0A2D095D0A7D09AD024
:102320009020D0A2D095D09FD09BD09000546865CB
:10233000726D616C2052756E6177617900D09ED1AB
:1023400088D0B8D0B1D0BAD0B03A20D0A220D0BC7A
:10235000D0B0D0BAD1812E004D415854454D5020B7
:1023600074726967676572656400D09ED188D0B861
:10237000D0B1D0BAD0B03A20D0A220D0BCD0B8D002
:10238000BD2E004D494E54454D502074726967670B
:102390006572656400202F002042403A0020403AD8
:1023A000007C3C3E5E2B3D3F2F5B5D3B2C2A225C3C
:1023B00000000C0F00FE0000000000D1D10007005B
:1023C000000005070706000050007088F0807000CC
:1023D0000C0F00FE0000000000AFCF0008FE000060
:1023E00005070706000078888878284888050505CD
:1023F00006000070087888780507070600007080DE
:10240000F088888870050505060000F088F088F0DF
:10241000050505060000F880808080050606060098
:10242000FF30505050F8880505050600007088F010
:102430008070050505060000A8702070A805050538
:102440000600007088308870050505060000889831
:10245000A8C8880508080600008870008898A8C8E1
:102460008804050506010090A0C0A090050505069A
:102470000000384848488805050506000088D8A8A7
:1024800088880505050600008888F8888805050500
:102490000600007088888870050505060000F88829
:1024A0008888880507070600FEF0888888F0808005
:1024B0000505050600007088808870050505060082
:1024C00000F8202020200507070600FE888888885D
:1024D0007808700509090600FE202070A8A8A870D9
:1024E00020200505050600008850205088050707B4
:1024F0000600FE90909090F808080505050600007B
:102500008888780808050505060000A8A8A8A8F886
:102510000507070600FEA8A8A8A8F80808050505ED
:10252000060000C040704870050505060000888858
:10253000C8A8C80405050601008080E090E00405F5
:1025400005060100E0107010E0050505060000908A
:10255000A8E8A8900405050601007090705090004E
:102560000C0F00FE0000000000ABAD0007000000F3
:10257000050707060000888888C8A8A8C8040707B8
:10258000060100808080E09090E0050707060000CB
:1025900070880878088870000C0F00FE00000000AA
:1025A0000090A8000AFE00000507070600007088DA
:1025B00088F8888888050707060000F08080F08882
:1025C00088F0050707060000F08888F08888F00585
:1025D0000707060000F880808080808005080806D4
:1025E00000FF305050505050F88805070706000093
:1025F000F88080F08080F8050707060000A8A87022
:102600002070A8A8050707060000708808700888D1
:1026100070050707060000888898A8C88888050AFA
:102620000A060000887000888898A8C8888805076E
:10263000070600008890A0C0A09088050707060044
:10264000003848484848488805070706000088D8E9
:10265000A888888888050707060000888888F88881
:1026600088880507070600007088888888887005B4
:102670000707060000F88888888888880507070605
:102680000000F08888F08080800507070600007051
:10269000888080808870050707060000F8202020C9
:1026A00020202005070706000088888888780870A1
:1026B0000507070600002070A8A8A87020050707D6
:1026C000060000888850205088880509090600FE09
:1026D000909090909090F8080805070706000088F1
:1026E000888878080808050707060000A8A8A8A891
:1026F000A8A8F8000C0F00FE07022503BB01FFFE8F
:102700000AFE08FE05080806000040F0C888889800
:102710007810050808060000C0F88888888888F8BE
:102720000505050600012030F830200508080600E0
:10273000002070F820202020E00509090600FF2075
:1027400070A8A8B888887020070505070001D86C14
:10275000366CD80509090600FFF8A888888888889B
:10276000A8F8050A0A0600FE205050505088A8A874
:10277000887003030306000340A040FFFFFFFFFF34
:10278000FFFFFFFFFFFFFFFFFFFFFFFFFFFFFFFF59
:10279000FF0000000605FF01070706020080808099
:1027A00080800080030303060105A0A0A0050606A3
:1027B00006000050F85050F8500509090600FF20A7
:1027C00070A8A07028A87020050707060000C8C8D8
:1027D000102040989805070706000040A0A040A8D8
:1027E0009068010303060205808080030909060141
:1027F000FF2040408080804040200309090601FFFF
:10280000804040202020404080050707060000202F
:10281000A8702070A8200505050600012020F820DA
:10282000200203030601FFC04080050101060003EA
:10283000F8020202060100C0C005070706000008F2
:10284000101020404080050707060000708898A8F7
:10285000C8887003070706010040C040404040E0C0
:10286000050707060000708808102040F8050707D4
:10287000060000F8081030088870050707060000F9
:1028800010305090F81010050707060000F880F08F
:1028900008088870050707060000304080F0888827
:1028A00070050707060000F8081010202020050713
:1028B0000706000070888870888870050707060082
:1028C0000070888878081060020505060100C0C005
:1028D00000C0C00206060601FFC0C000C040800361
:1028E0000505060101204080402005030306000283
:1028F000F800F80305050601018040204080050727
:102900000706000070881020200020050707060039
:10291000007088B8A8B880700507070600007088A6
:1029200088F8888888050707060000F0484870483E
:1029300048F00507070600007088808080887005D1
:102940000707060000F04848484848F00507070612
:102950000000F88080F08080F8050707060000F886
:102960008080F080808005070706000070888080E6
:10297000988870050707060000888888F888888886
:10298000030707060100E04040404040E00507071C
:1029900006000038101010109060050707060000B0
:1029A0008890A0C0A090880507070600008080805E
:1029B000808080F805070706000088D8A8888888E6
:1029C000880507070600008888C8A8988888050732
:1029D0000706000070888888888870050707060049
:1029E00000F08888F0808080050707060000708866
:1029F0008888A89068050707060000F08888F0A07E
:102A000090880507070600007088807008887005A8
:102A10000707060000F820202020202005070706D1
:102A20000000888888888888700507070600008865
:102A30008888885050200507070600008888888805
:102A4000A8A85005070706000088885020508888ED
:102A5000050707060000888850202020200507076A
:102A6000060000F80810204080F80309090601FF5D
:102A7000E080808080808080E0050707060000807D
:102A80004040201010080309090601FFE020202023
:102A900020202020E00503030600052050880501C2
:102AA000010600FEF803030306010580402005052A
:102AB0000506000070087888780507070600008082
:102AC00080F0888888F00505050600007080808801
:102AD00070050707060000080878888888780505CB
:102AE000050600007088F0807005070706000030BA
:102AF0004840E04040400507070600FE708888888F
:102B00007808700507070600008080F088888888AC
:102B10000307070601004000C0404040E0040909E7
:102B20000601FE1000301010101090600507070617
:102B3000000080808890E09088030707060100C0AD
:102B40004040404040E0050505060000D0A8A8A888
:102B5000A8050505060000B0C88888880505050693
:102B6000000070888888700507070600FEF08888D6
:102B700088F080800507070600FE78888888780836
:102B800008050505060000B0C8808080050505061B
:102B9000000078807008F00507070600002020F884
:102BA00020202018050505060000888888986805FB
:102BB00005050600008888885020050505060000E8
:102BC0008888A8A850050505060000885020508870
:102BD0000507070600FE8888885020408005050507
:102BE000060000F8102040F80309090601FF204004
:102BF000404080404040200109090602FF8080805B
:102C00008080808080800309090601FF8040404069
:102C1000204040408005030306000248A890FFFFC3
:102C2000FFFFFFFFFFFFFFFFFFFFFFFFFFFFFFFFB4
:102C3000FFFFFFFFFFFFFFFFFFFFFFFFFFFFFF00A3
:102C400000000605FF010707060200800080808063
:102C500080800507070600FF2070A8A0A870200547
:102C60000707060000304840E04048B0050505066B
:102C70000000A8508850A80507070600008850F8F3
:102C800020F8202001070706020080808000808055
:102C90008004080806010070806090906010E003D6
:102CA0000101060107A00607070600007884B4A406
:102CB000B4847803050506010460A06000E0050502
:102CC000050600002850A05028050303060001F85F
:102CD0000808030101060103E00607070600007863
:102CE00084B4A4A48478050101060007F804040450
:102CF000060105609090600507070600002020F897
:102D0000202000F803050506010440A02040E00350
:102D10000505060104C0204020C003030306010589
:102D20002040800507070600FE88888898E8808094
:102D300005080806000078E8E8E868282828020264
:102D400002060203C0C00302020601FE20C0030502
:102D50000506010440C04040E003050506010540AA
:102D6000A04000E0050505060000A0502850A00581
:102D70000A0A06000040C048506050B05078100564
:102D80000A0A06000040C048506050A808103805E4
:102D90000A0A060000C0204830E050B05078100504
:102DA000070706000020002020408870050A0A0658
:102DB0000000402000708888F8888888050A0A0684
:102DC0000000102000708888F8888888050A0A06A4
:102DD0000000205000708888F8888888050A0A0654
:102DE000000068B000708888F8888888050909069E
:102DF00000005000708888F8888888050A0A060054
:102E000000205020708888F8888888050707060009
:102E10000078A0A0F0A0A0B80509090600FE7088FF
:102E200080808088701060050A0A0600004020003B
:102E3000F88080F08080F8050A0A06000010200063
:102E4000F88080F08080F8050A0A06000020500013
:102E5000F88080F08080F80509090600005000F82D
:102E60008080F08080F8030A0A060100804000E0BC
:102E70004040404040E0030A0A060100204000E0D4
:102E80004040404040E0030A0A06010040A000E044
:102E90004040404040E0030909060100A000E04036
:102EA00040404040E0050707060000704848E848F9
:102EB0004870050A0A06000068B0008888C8A8980B
:102EC0008888050A0A0600004020007088888888E3
:102ED0008870050A0A06000010200070888888881B
:102EE0008870050A0A0600002050007088888888CB
:102EF0008870050A0A06000068B000708888888813
:102F00008870050909060000500070888888888844
:102F1000700505050600018850205088050909063E
:102F200000FF087098A8A8A8C87080050A0A0600C3
:102F30000040200088888888888870050A0A060072
:102F40000010200088888888888870050A0A060092
:102F50000020500088888888888870050909060044
:102F600000500088888888888870050A0A06000052
:102F70001020008888502020202004070706010028
:102F800080E0909090E08005070706000070889030
:102F9000A09088B00508080600004020007008785E
:102FA00088780508080600001020007008788878E6
:102FB0000508080600002050007008788878050889
:102FC0000806000068B000700878887805070706D2
:102FD0000000500070087888780508080600002076
:102FE0005020700878887805050506000070287064
:102FF000A0780507070600FE7088808870106005BD
:1030000008080600004020007088F080700508085D
:103010000600001020007088F08070050808060087
:10302000002050007088F0807005070706000050EF
:10303000007088F08070030808060100804000C01E
:10304000404040E0030808060100204000C0404026
:1030500040E003080806010040A000C0404040E0F6
:10306000030707060100A000C0404040E005090931
:1030700006000050205008788888887005080806E7
:10308000000068B000B0C8888888050808060000FD
:10309000402000708888887005080806000010200D
:1030A00000708888887005080806000020500070AD
:1030B0008888887005080806000068B00070888855
:1030C0008870050707060000500070888888700522
:1030D00005050600012000F8002005050506000092
:1030E0007898A8C8F00508080600004020008888E5
:1030F00088887005080806000010200088888888E5
:10310000700508080600002050008888888870052F
:10311000070706000050008888888870050A0A069C
:1031200000FE10200088888850204080050909068C
:1031300000FE8080F0888888F080800509090600FC
:10314000FE50008888885020408001FFFFFFFFFF6D
:10315000FFFFFFFFFFFFFFFF0FFFFFFFFFFFFFFF6F
:10316000FFFFFFFFFFFF1E00000000000000000047
:103170000007FFFF3800000000000000000000030F
:10318000FFFF700000000000000000000001FFFFD2
:10319000600000000000000000000000FFFF600071
:1031A000000000000000000000007FFFC0000000E1
:1031B00000000000007800003FFFC00FC0FC0000CE
:1031C0000000007818001FFFC03FE1FF0000000072
:1031D00000783C000FFFC07FF3FF80000000007804
:1031E0003C0007FFC0FFFFFFC000000000783C006C
:1031F00003FFC1F87F87E00000000078000001FFB6
:10320000C1F03F03E00000000078000000FFC1E0D3
:103210001E01E01F0003E0783C03F07FC1E01E01C7
:10322000E07FC00FF8783C07FC3FC1E01E01E1FFE2
:10323000E01FFC783C0FFE1FC1E01E01E3FFF03FE2
:10324000FE783C1FFE0FC1E01E01E3F3F83F3E781D
:103250003C3F3F07C1E01E01E7E0FC7C1F783C3E9D
:103260001F07C1E01E01E7C07C7C0F783C3C0F03C8
:10327000C1E01E01E7807C780F783C3C0F03C1E081
:103280001E01E7803C7800783C3C0F03C1E01E0142
:10329000E7803C7800783C3C0F03C1E01E01E780EA
:1032A0003C7800783C3C0F03C1E01E01E7C03C784D
:1032B00000783C3C0F03C1E01E01E3E03C78007C59
:1032C0003C3C0F03C1E01E01E3FF3FF8007FBC3C24
:1032D0000F03C1E01E01E1FF3FF8003FBFFC0F03F9
:1032E000C1E01E01E0FF3FF8001FBFFC0F03C1E07B
:1032F0001E01E07F3FF8000FBFFC0F0360000000DD
:103300000000000000000000000760000000000056
:103310000000000000000006700000000000000037
:1033200000000000000E3800000000000000000057
:103330000000001C1E000000000000000000000053
:1033400000780FFFFFFFFFFFFFFFFFFFFFFFFFF012
:1033500001FFFFFFFFFFFFFFFFFFFFFFFF8001FFF8
:10336000FFFFFFFFFFFFFFFFFFFFFFFF0FFFFFFF5D
:10337000FFFFFFFFFFFFFFFFFFFF1E000000000039
:10338000000000000007FFFF380000000000000000
:1033900000000003FFFF70000000000000000000BC
:1033A0000001FFFF600000000000000000000000BE
:1033B000FFFF6000000000000000000000007FFF31
:1033C000C000000000000000007800003FFFC00FB8
:1033D000C0FC00000000007818001FFFC03FE1FFA4
:1033E0000000000000783C000FFFC07FF3FF80006A
:1033F000000000783C0007FFC0FFFFFFC000000096
:1034000000783C0003FFC1F87F87E00000000078EF
:10341000000001FFC1F03F03E00000000078000061
:1034200000FFC1E01E01E01F0003E0783C00007FC8
:10343000C1E01E01E07FC00FF8783C00003FC1E012
:103440001E01E1FFE01FFC783C00001FC1E01E01EF
:10345000E3FFF03FFE783C00000FC1E01E01E3F304
:10346000F83F3E783C000007C1E01E01E7E0FC7C2D
:103470001F783C000007C1E01E01E7C07C7C0F788C
:103480003C000003C1E01E01E7807C780F783C001F
:103490000003C1E01E01E7803C7800783C00000397
:1034A000C1E01E01E7803C7800783C000003C1E0E9
:1034B0001E01E7803C7800783C000003C1E01E015B
:1034C000E7C03C7800783C000003C1E01E01E3E067
:1034D0003C78007C3C000003C1E01E01E3FF3FF8A4
:1034E000007FBC000003C1E01E01E1FF3FF8003F88
:1034F000BF000003C1E01E01E0FF3FF8001FBF0056
:103500000003C1E01E01E07F3FF8000FBF00000391
:1035100060000000000000000000000000076000E4
:103520000000000000000000000000067000000025
:103530000000000000000000000E38000000000045
:10354000000000000000001C1E0000000000000041
:103550000000000000780FFFFFFFFFFFFFFFFFFFED
:10356000FFFFFFF001FFFFFFFFFFFFFFFFFFFFFF78
:10357000FF8001FFFFFFFFFFFFFFFFFFFFFFFFFFD8
:103580000FFFFFFFFFFFFFFFFFFFFFFFFFFF1E001B
:1035900000000000000000000007FFFF38000000EE
:1035A0000000000000000003FFFF700000000000AA
:1035B000000000000001FFFF6000000000000000AC
:1035C00000000000FFFF600000000000000000009D
:1035D00000007FFFC0000000000000000078000035
:1035E0003FFFC00FC0FC00000000007800001FFF7C
:1035F000C03FE1FF00000000007800000FFFC07F27
:10360000F3FF800000000078000007FFC0FFFFFF0D
:10361000C00000000078000003FFC1F87F87E000D1
:1036200000000078000001FFC1F03F03E00000004F
:103630000078000000FFC1E01E01E01F0003E078F9
:103640000000007FC1E01E01E07FC00FF87800009D
:10365000003FC1E01E01E1FFE01FFC780000001FF9
:10366000C1E01E01E3FFF03FFE780000000FC1E063
:103670001E01E3F3F83F3E7800000007C1E01E01A1
:10368000E7E0FC7C1F7800000007C1E01E01E7C0F6
:103690007C7C0F7800000003C1E01E01E7807C788D
:1036A0000F7800000003C1E01E01E7803C7800783D
:1036B00000000003C1E01E01E7803C7800780000B4
:1036C0000003C1E01E01E7803C78007800000003A1
:1036D000C1E01E01E7C03C78007800000003C1E0B3
:1036E0001E01E3E03C78007C00000003C1E01E0105
:1036F000E3FF3FF8007F00000003C1E01E01E1FF8F
:103700003FF8003F00000003C1E01E01E0FF3FF86A
:10371000001F00000003C1E01E01E07F3FF8000F22
:103720000000000360000000000000000000000036
:10373000000760000000000000000000000000061C
:10374000700000000000000000000000000E3800C3
:1037500000000000000000000000001C1E0000002F
:10376000000000000000000000780FFFFFFFFFFFD7
:10377000FFFFFFFFFFFFFFF001FFFFFFFFFFFFFF66
:10378000FFFFFFFFFF8001FFFFFFFFFFFFFFFFFFC6
:10379000FFFFFFFF0FFFFFFFFFFFFFFFFFFFFFFF29
:1037A000FFFF1E0000000000000000000007FFFFF8
:1037B000380000000000000000000003FFFF700060
:1037C00000000000000000000001FFFF600000009A
:1037D0000000000000000000FFFF6000000000008B
:1037E0000000000000007FFFC0000000000000009B
:1037F000000000003FFFC00FC0FC00000000000000
:1038000000001FFFC03FE1FF0000000000000000BB
:103810000FFFC07FF3FF800000000000000007FFE3
:10382000C0FFFFFFC00000000000000003FFC1F860
:103830007F87E00000000000000001FFC1F03F03AF
:10384000E00000000000000000FFC1E01E01E01FDA
:103850000003E0000000007FC1E01E01E07FC00F18
:10386000F8000000003FC1E01E01E1FFE01FFC0086
:103870000000001FC1E01E01E3FFF03FFE0000005A
:10388000000FC1E01E01E3F3F83F3E000000000717
:10389000C1E01E01E7E0FC7C1F0000000007C1E062
:1038A0001E01E7C07C7C0F0000000003C1E01E0188
:1038B000E7807C780F0000000003C1E01E01E78074
:1038C0003C78000000000003C1E01E01E7803C7866
:1038D000000000000003C1E01E01E7803C7800000A
:1038E00000000003C1E01E01E7C03C7800000000BA
:1038F0000003C1E01E01E3E03C780000000000038B
:10390000C1E01E01E3FF3FF8000000000003C1E03A
:103910001E01E1FF3FF8000000000003C1E01E01AE
:10392000E0FF3FF8000000000003C1E01E01E07F5F
:103930003FF80000000000036000000000000000ED
:103940000000000000076000000000000000000010
:1039500000000006700000000000000000000000F1
:10396000000E380000000000000000000000001CF5
:103970001E000000000000000000000000780FFFA3
:10398000FFFFFFFFFFFFFFFFFFFFFFF001FFFFFF54
:10399000FFFFFFFFFFFFFFFFFF8001FFFFFFFFFFB4
:1039A000FFFFFFFFFFFFFFFF0FFFFFFFFFFFFFFF17
:1039B000FFFFFFFFFFFF1E000000000000000000EF
:1039C0000007FFFF380000000000000000000003B7
:1039D000FFFF700000000000000000000001FFFF7A
:1039E000600000000000000000000000FFFF600019
:1039F000000000000000000000007FFFC000000089
:103A000000000000000000003FFFC00FC0FC0000ED
:103A10000000000000001FFFC03FE1FF00000000A9
:103A2000000000000FFFC07FF3FF800000000000D7
:103A3000000007FFC0FFFFFFC00000000000000003
:103A400003FFC1F87F87E00000000000000001FFD5
:103A5000C1F03F03E00000000000000000FFC1E0F3
:103A60001E01E01F000000000000007FC1E01E01F9
:103A7000E07FC00000000000003FC1E01E01E1FF48
:103A8000E00000000000001FC1E01E01E3FFF000A5
:103A900000000000000FC1E01E01E3F3F800000089
:103AA00000000007C1E01E01E7E0FC00000000008C
:103AB0000007C1E01E01E7C07C0000000000000319
:103AC000C1E01E01E7807C00000000000003C1E0AF
:103AD0001E01E7803C00000000000003C1E01E0161
:103AE000E7803C00000000000003C1E01E01E78009
:103AF0003C00000000000003C1E01E01E7C03C00E4
:103B0000000000000003C1E01E01E3E03C000000F3
:103B100000000003C1E01E01E3FF3F0000000000C1
:103B20000003C1E01E01E1FF3F00000000000003B0
:103B3000C1E01E01E0FF3F00000000000003C1E003
:103B40001E01E07F3F000000000000036000000055
:103B500000000000000000000007600000000000FE
:103B600000000000000000067000000000000000DF
:103B700000000000000E38000000000000000000FF
:103B80000000001C1E0000000000000000000000FB
:103B900000780FFFFFFFFFFFFFFFFFFFFFFFFFF0BA
:103BA00001FFFFFFFFFFFFFFFFFFFFFFFF8001FFA0
:103BB000FFFFFFFFFFFFFFFFFFFFFFFF0FFFFFFF05
:103BC000FFFFFFFFFFFFFFFFFFFF1E0000000000E1
:103BD000000000000007FFFF3800000000000000A8
:103BE00000000003FFFF7000000000000000000064
:103BF0000001FFFF60000000000000000000000066
:103C0000FFFF6000000000000000000000007FFFD8
:103C1000C000000000000000000000003FFFC00FD7
:103C2000C0FC00000000000000001FFFC03FE1FFDB
:103C300000000000000000000FFFC07FF3FF8000C5
:103C400000000000000007FFC0FFFFFFC0000000F1
:103C50000000000003FFC1F87F87E00000000000C3
:103C6000000001FFC1F03F03E00000000000000081
:103C700000FFC1E01E01E000000000000000007F26
:103C8000C1E01E01E000000000000000003FC1E0B4
:103C90001E01E000000000000000001FC1E01E0146
:103CA000E000000000000000000FC1E01E01E00085
:103CB0000000000000000007C1E01E01E00000005D
:103CC000000000000007C1E01E01E000000000004D
:103CD00000000003C1E01E01E00000000000000041
:103CE0000003C1E01E01E00000000000000000032E
:103CF000C1E01E01E0000000000000000003C1E080
:103D00001E01E0000000000000000003C1E01E01F1
:103D1000E0000000000000000003C1E01E01E00020
:103D20000000000000000003C1E01E01E0000000F0
:103D3000000000000003C1E01E01E00000000000E0
:103D400000000003C1E01E01E000000000000000D0
:103D50000003C1E01E01E0000000000000000003BD
:103D6000600000000000000000000000000760008C
:103D700000000000000000000000000670000000CD
:103D80000000000000000000000E380000000000ED
:103D9000000000000000001C1E00000000000000E9
:103DA0000000000000780FFFFFFFFFFFFFFFFFFF95
:103DB000FFFFFFF001FFFFFFFFFFFFFFFFFFFFFF20
:103DC000FF8001FFFFFFFFFFFFFFFFFFFFFFFFFF80
:103DD0000FFFFFFFFFFFFFFFFFFFFFFFFFFF1E00C3
:103DE00000000000000000000007FFFF3800000096
:103DF0000000000000000003FFFF70000000000052
:103E0000000000000001FFFF600000000000000053
:103E100000000000FFFF6000000000000000000044
:103E200000007FFFC0000000000000000000000054
:103E30003FFFC000000000000000000000001FFF66
:103E4000C000000000000000000000000FFFC000E4
:103E50000000000000000000000007FFC00000009C
:103E6000000000000000000003FFC0000000000090
:103E700000000000000001FFC00000000000000082
:103E80000000000000FFC000000000000000000073
:103E90000000007FC00000000000000000000000E3
:103EA000003FC00000000000000000000000001FF4
:103EB000C00000000000000000000000000FC00073
:103EC000000000000000000000000007C00000002B
:103ED00000000000000000000007C000000000001B
:103EE0000000000000000003C0000000000000000F
:103EF000000000000003C0000000000000000000FF
:103F000000000003C00000000000000000000000EE
:103F10000003C000000000000000000000000003DB
:103F2000C000000000000000000000000003C0000E
:103F3000000000000000000000000003C0000000BE
:103F400000000000000000000003C00000000000AE
:103F50000000000000000003C0000000000000009E
:103F6000000000000003C00000000000000000008E
:103F700000000003600000000000000000000000DE
:103F800000076000000000000000000000000006C4
:103F9000700000000000000000000000000E38006B
:103FA00000000000000000000000001C1E000000D7
:103FB000000000000000000000780FFFFFFFFFFF7F
:103FC000FFFFFFFFFFFFFFF001FFFFFFFFFFFFFF0E
:103FD000FFFFFFFFFF80D09FD0B5D187D0B0D18247
:103FE000D18C20D0BDD0B020D0BFD0B0D183D0B73D
:103FF000D0B50043616E6E6F74206F70656E207374
:1040000075626469722000534420496E69742046C9
:1040100061696C0053442063617264206F6B0A0015
:104020006F70656E526F6F74206661696C65640AAB
:1040300000766F6C756D652E696E697420666169B6
:104040006C65640A004E6F20534420636172640AF9
:10405000004D3234004D3233202573002E0A006F9C
:1040600070656E206661696C65642C2046696C65BC
:104070003A200046696C652073656C6563746564FD
:104080000A002053697A653A200046696C65206F02
:1040900070656E65643A2000454E44205355425287
:1040A0004F5554494E450A002220706F730022205C
:1040B000706172656E743A2200535542524F5554E6
:1040C000494E452043414C4C207461726765743AF7
:1040D0002200D09FD0B5D180D0B5D0BFD0BED0BB4C
:1040E000D0BD2E20D0B2D18BD0B7D0BED0B2D0B000
:1040F000004578636565646564206D61782053557B
:1041000042524F5554494E452064657074683A31A7
:104110000A0057726974696E6720746F2066696C53
:10412000653A2000667265736800646F696E6700A7
:104130002066696C653A20004E6F772000000021F0
:1041400000240027002A002D003000330001010068
:1041500000040107010A0100002200250028002BAD
:10416000002E003100340002010000050108010B9F
:1041700001000020002300260029002C002F00321F
:1041800000000100000301060109010505050507FE
:104190000508080808020202020A0A0808040404C2
:1041A00004010101010101010103030303030303EE
:1041B00003040707070C0C0C0C0C0C0C0C0202027D
:1041C0000206060606060606060B0B0B0B0B0B0B70
:1041D0000B0102102020080810204010204080020F
:1041E000010201080402010102040810204080803D
:1041F00040201008040201800402018040201008C1
:104200000402010804020101020408102040800198
:104210000204081020408000000A0B02090C0D0E59
:104220000807030401000000000000000000000077
:10423000000000000000000000000000000000007E
:10424000000000121110000000000000000000003B
:10425000000000000000000000000000000000005E
:10426000000000000000000000000000000000004E
:10427000000000000000000000000000000000003E
:104280000C00000000000000000000000000000022
:104290007F0000000000000000000000000000039C
:1042A000FF80000000000000000000000000000F80
:1042B000FFC0000000000000000000000000001F20
:1042C000FFE0000000000000000000000000003FD0
:1042D000FFF0000000000000000000000000007F70
:1042E000FFF000000000000000000000000000E3FC
:1042F000FFFC0000000000000000000000000007BC
:104300007FFE000000000000000000000000000F21
:10431000FFFE000000000000000000000000000F91
:10432000FFFE000000000000000000000000001F71
:10433000F33E00000000000000000000000000113B
:10434000848D000000000000000000000000002636
:1043500048DC000000000000000000000000001C1D
:104360003672800000000000000000000000007FA6
:10437000FFFF80000000000000000000000001FFBF
:10438000FFFFC0060000000000000000000007FF63
:104390000007F009000000000000000000001F7787
:1043A000FFFF7C00800000000000000000006FFFA5
:1043B000FFFFDDF100000000000000000000BFFF73
:1043C000BFCFFF2200000000000000000000FFFF40
:1043D0003BCFF794000000000000000000003FFF0A
:1043E00027CBF6D80000000000000000000003FF0B
:1043F0007783F7C00000000000000000000001FE0D
:10440000783FE1C00000000000000000000000FE56
:104410006033E80000000000000000000000007FA2
:104420007023E600039CFC7C6339CCC60000003F8F
:104430002037A000039CFCFE6339CCE60000001F7F
:104440000007A30003DCC0C6633DCCF60000000FEC
:1044500000078E0003FCFCC0633FCCF600000007A1
:10446000800F0C0003FCFCCF633FCCDE0000000398
:10447000C01C0800037CC0C37337CCDE00000003FF
:10448000C05C1800036CFEFF7F36CCCE00000073CA
:10449000FFCE0000036CFE7C3E36CCC60000007BE5
:1044A000F0E600000000000000000000000000FB3B
:1044B000FFF60000000000000000000000000063A4
:1044C000DFDA00000000000000000000000001E34F
:1044D000FFFC00000000000000000000000007DFFB
:1044E000FFFE0000000000000000000000000FBF01
:1044F000FFFDC000000000000000000000001F7F62
:10450000FFF9A000000000000000000000003EFFD6
:10451000FF5B5800000000000000000000007DFF6D
:10452000FF586C00000000000000000000007BFF4E
:10453000FFDEEE0000000000000000000000FBFEB7
:10454000BFFDE60000000000000000000000F1FFD9
:104550006FF5C7000000000000000000000060FFD1
:10456000DFC9830000000000000000000000607F41
:10457000327B030000000000000000000000401F2C
:104580000F1E030000000000000000000000000FEC
:104590000FFC02000000000000000000000000020C
:1045A0001FF80000000000000000000000000000F4
:1045B0001FF80000000000000000000000000000E4
:1045C000007000000000000000000000000000007B
:1045D0000070000000000000000000000000000368
:1045E0008000000000000000000000000000000249
:1045F00080400000000000000000000000000003F8
:1046000000D00000000000000000000000000000DA
:10461000003000000000000000000000000000006A
:10462000000000000000000000000000000000008A
:10463000000000000000000000000000000000007A
:10464000000000000000000000000000000000006A
:10465000000000000000000000000000006874740A
:1046600070733A2F2F6D61726C696E66772E6F7260
:104670006700322E302E3700C23DAE3B9A39863766
:1046800072355E334A3170012C0190012701B0016F
:104690002201C0011D01F0011801100213013002B6
:1046A0000E016002090190020401C002FF00000334
:1046B000FA004003F5008003F000D003EB00200473
:1046C000E6007004E100E004DC004005D700C0050E
:1046D000D2004006CD00D006C8008007C3003008D5
:1046E000BE00F008B900C009B400B00AAF00B00BBA
:1046F000AA00D00CA500000EA000500F9B00C01017
:1047000096005012910000148C00C0158700B0175D
:104710008200B0197D00D01B7800001E730040207D
:104720006E0090226900F024640040275F00902909
:104730005A00E02B5500102E500020304B00103254
:104740004600E033410090353C00103737007038A8
:104750003200A0392D00B03A2800A03B2300603C75
:104760001E00103D1900903D1400103E0F00703ED9
:104770000A00C03E0500003F0000403FFBFF803FB5
:10478000F6FFC03FF1FF2020506C616E6E657242F3
:10479000756666657242797465733A2000204672C8
:1047A0006565204D656D6F72793A2000436F6D70BD
:1047B000696C65643A204A616E20323420323032AE
:1047C000310A00204C617374205570646174656413
:1047D0003A20323032302D30392D3239207C204190
:1047E0007574686F723A204D6178696D2054656CFC
:1047F0006567696E0A00322E302E370A004D6172ED
:104800006C696E0020536F66747761726520526523
:104810007365740A00205761746368646F6720527F
:10482000657365740A002042726F776E206F75742D
:104830002052657365740A002045787465726E6154
:104840006C2052657365740A00506F7765725570FD
:104850000A0073746172740A006175746F25632EA7
:1048600067004732385859004D3130303100657299
:10487000726F722077726974696E6720746F206638
:10488000696C650A00446F6E6520736176696E67B6
:104890002066696C652E0A004D323900D0ADD0BD5E
:1048A000D0B4D181D182D0BED0BFD18B00255320CE
:1048B000256320256320256320256300205A3A00C4
:1048C00020593A0020583A00656E6473746F707313
:1048D000206869743A200000D094D0B2D0B8D0B625
:1048E000D0B5D0BDD0B8D0B5202573D0BCD0BC00D9
:1048F000D094D0B2D0B8D0B6D0B5D0BDD0B8D0B5A5
:1049000020302E31D0BCD0BC00D094D0B2D0B8D0A2
:10491000B6D0B5D0BDD0B8D0B52031D0BCD0BC0059
:10492000D094D0B2D0B8D0B6D0B5D0BDD0B8D0B574
:10493000203130D0BCD0BC00D094D0B2D0B8D0B6EA
:10494000D0B5D0BDD0B8D0B520D0BFD0BE20D0BE5D
:10495000D181D18FD0BC00D0A1D0BED0BFD0BBD030
:10496000BE20D0BDD0B520D0BDD0B0D0B3D180D086
:10497000B5D182D0BE00D0ADD0BAD181D182D180A4
:10498000D183D0B4D0B5D18000D094D0B2D0B8D03B
:10499000B6D0B5D0BDD0B8D0B520D0BFD0BE205A8B
:1049A00000D094D0B2D0B8D0B6D0B5D0BDD0B8D0A9
:1049B000B520D0BFD0BE205900D094D0B2D0B8D04E
:1049C000B6D0B5D0BDD0B8D0B520D0BFD0BE20585D
:1049D00000D09FD0B5D187D0B0D182D18C20D181E9
:1049E00020534420D0BAD0B0D180D182D18B0022C4
:1049F0000A00556E6B6E6F776E20636F6D6D616E22
:104A0000643A2022004D6567755072696E7420D03B
:104A100093D0BED182D0BED0B22E00D09FD0B5D11F
:104A200087D0B0D182D18C2E2E2E0020453A002086
:104A30005A3A0020593A00583A00204500205A00BE
:104A4000205900204D3932205800DB0FC93F45BCAA
:104A5000DA3F8FB30240FCF0274056946140FE4B92
:104A60009B4084A5D840E0231841346A5641E85958
:104A7000974164DBD5416E271742B4B75542CE1A31
:104A80009742C8AED542B5885A43D40684BFA65FC4
:104A9000A7BF7443E0BF10B11AC01C2C58C0E8F681
:104AA00097C0B849D6C04E4E17C124D355C18024F3
:104AB00097C1A0B5D5C1121A17C244AE55C2781716
:104AC00097C26CACD5C267885AC320746F6F206CD4
:104AD0006F6E6720657874727573696F6E2070727F
:104AE0006576656E7465640A0020636F6C6420658A
:104AF0007874727573696F6E2070726576656E7406
:104B000065640A00FBD9BBE111241FBECFEFD1E2DF
:104B1000DEBFCDBF00E00CBF12E0A0E0B2E0EAECE7
:104B2000F1EE01E00BBF02C007900D92A43AB1076D
:104B3000D9F722E1A4EAB2E001C01D92A93FB20771
:104B4000E1F715E2C3E8D5E200E006C021970109CC
:104B5000802FFE010E9434F0C238D10780E00807A0
:104B6000A9F70E9416DB0C94D3F00C940000AF92CE
:104B7000BF92CF92DF92EF92FF920F931F93CF934A
:104B8000DF93C2E9DCE005EB17E082EAA82E8CE0B7
:104B9000B82EC12CD12C7601C39469917991899159
:104BA00099910E9460E6288939894A895B890E9427
:104BB000C1E60E9439EEF80161937193819391935C
:104BC0008F01C616D706E806F90610F46B017C01C2
:104BD000AC16BD0611F76FEF7FEFCB01A701960171
:104BE0000E9489EC2093C5073093C6074093C707FE
:104BF0005093C807DF91CF911F910F91FF90EF90D5
:104C0000DF90CF90BF90AF900895CF92DF92EF9258
:104C1000FF928091A904882309F457C0C090A5048D
:104C2000D090A604E090A704F090A80420E030E023
:104C3000A901C701B6010E945BE6882309F445C0BB
:104C400020E030E040E05FE3C701B6010E94C1E62A
:104C50009B01AC010E94C1E62BED3FE049E450E42A
:104C60000E94C1E69B01AC0160E070E080E89FE338
:104C70000E94C0ED6B017C01C0929504D092960415
:104C8000E0929704F09298046091150270911602D8
:104C9000072E000C880B990B0E9462E62AE037ED84
:104CA00043E25CE30E94C1E6A70196010E94C1E6CF
:104CB0006093660270936702809368029093690222
:104CC000FF90EF90DF90CF900895C12CD12C80E819
:104CD000E82E8FE3F82ED0CFCF93DF9324E0829F8E
:104CE000C0011124EC01CB55D84FFC01E854FA4F18
:104CF00088589B4FDC012D913D914D915C916081D5
:104D00007181828193810E94C6EC688379838A8352
:104D10009B83DF91CF910895CF92DF92EF92FF9224
:104D20001F93CF93DF9320911402222309F48DC0A7
:104D3000EC011091840410FF2CC0C0902302D0908D
:104D40002402E0902502F0902602288139814A81D0
:104D50005B81C701B6010E9426EF181624F4C882B1
:104D6000D982EA82FB82C0902F02D0903002E0907C
:104D70003102F0903202288139814A815B81C7017A
:104D8000B6010E945BE687FF04C0C882D982EA822E
:104D9000FB8211FF2CC0C0902702D0902802E09027
:104DA0002902F0902A022C813D814E815F81C7014A
:104DB000B6010E9426EF181624F4CC82DD82EE8222
:104DC000FF82C0903302D0903402E0903502F09020
:104DD00036022C813D814E815F81C701B6010E9460
:104DE0005BE687FF04C0CC82DD82EE82FF8212FF89
:104DF0002CC0C0902B02D0902C02E0902D02F0909D
:104E00002E02288539854A855B85C701B6010E9437
:104E100026EF181624F4C886D986EA86FB86C09049
:104E20003702D0903802E0903902F0903A0228859B
:104E300039854A855B85C701B6010E945BE687FF1D
:104E400004C0C886D986EA86FB86DF91CF911F9180
:104E5000FF90EF90DF90CF900895CF92DF92EF9286
:104E6000FF92FC01C080D180E280F38020E030E03E
:104E7000A901C701B6010E945BE687FF68C0C701B0
:104E8000B601905820E030E040E251E40E94C1E6D3
:104E900020E030E040EA50E40E94C6EC20E030E040
:104EA00040E251E40E94C0ED0E9432EE9B0160E2BC
:104EB0002031F7E23F0730F0C90160E177E20E945C
:104EC000EDEF605D60936504283E83E0380708F4E9
:104ED00045C0C90168EE73E00E94EDEFCB016AE0C6
:104EE00070E00E94EDEF805D8093660480E22436DE
:104EF000310558F0C90164E670E00E94EDEFCB0186
:104F00006AE070E00E94EDEF805D8093670480E2CC
:104F10002A30310558F0EAE0F0E0C901BF010E94F3
:104F2000EDEFCB01BF010E94EDEF805D809368043F
:104F3000C9016AE070E00E94EDEF805D8093690432
:104F400085E694E0FF90EF90DF90CF90089520E009
:104F500030E040E251E4C701B60198CF80E2C4CF0F
:104F60008F929F92AF92BF92CF92DF92EF92FF9279
:104F7000FC01C080D180E280F38020E030E040E29C
:104F800051E4C701B6010E94C1E620E030E040E2F2
:104F900051E40E94C1E64B015C0120E030E0A90130
:104FA000C701B6010E945BE620E030E040EA50E431
:104FB00087FF04C020E030E040EA50ECC501B401B6
:104FC0000E94C6EC20E030E040E251E40E94C0EDD7
:104FD0000E9432EE9B018BE237FF05C02227332768
:104FE000261B370B8DE280936404C90168EE73E0E1
:104FF0000E9401F0CB01EAE0F0E0BF010E9401F065
:10500000805D80936504C90164E670E00E9401F050
:10501000CB01BF010E9401F0805D80936604C9014D
:10502000BF010E9401F0282FCB01BF010E9401F0B7
:10503000805D809367048EE280936804205D2093F6
:10504000690484E694E0FF90EF90DF90CF90BF90EA
:10505000AF909F908F9008958F929F92AF92BF9242
:10506000CF92DF92EF92FF92CF93FC01C080D1806C
:10507000E280F38020E030E040E251E4C701B60175
:105080000E94C1E620E030E048EC52E40E94C1E614
:105090004B015C0120E030E040E251ECC701B60179
:1050A0000E945BE6181654F420E030E048EC52E42D
:1050B000C701B6010E9426EF87FD86C020E030E0E0
:1050C000A901C701B6010E945BE687FF6EC060E0E0
:1050D00070E080EA90ECA50194010E94C6EC20E00B
:1050E00030E040E251E40E94C0ED0E9432EE6B01DC
:1050F0007C01F7FC5FC020E137E240E050E00E9415
:1051000015F0CA01B9012AE030E040E050E00E9409
:1051100015F0605D60936404C701B60128EE33E0CA
:1051200040E050E00E9415F09AE0892E912CA12CCD
:10513000B12CCA01B901A50194010E9415F0605D6E
:1051400060936504C701B60124E630E040E050E01A
:105150000E9415F0CA01B901A50194010E9415F041
:10516000605D609366048EE280936704C701B601B8
:10517000A50194010E9415F0C62FCA01B901A5012D
:1051800094010E9415F0605D60936804C05DC09357
:10519000690484E694E0CF91FF90EF90DF90CF9088
:1051A000BF90AF909F908F90089560E070E080EA8C
:1051B00090E491CFF094E094D094C094C11CD11CA1
:1051C000E11CF11C6DE2A6CF20E030E0A901C7018F
:1051D000B6010E945BE687FF6AC060E070E080EA8B
:1051E00090ECA50194010E94C6EC20E030E040E282
:1051F00051E40E94C0ED0E9432EE4B015C0120E0C0
:1052000030E0A901C701B6010E9426EF87FD0BC05F
:1052100020E030E040E251E4C701B6010E945BE6C5
:1052200060E287FD13C0B7FC47C0C501B40128EE9A
:1052300033E040E050E00E9415F0CA01B9012AE0D5
:1052400030E040E050E00E9415F0605D609365043E
:10525000C501B40124E630E040E050E00E9415F0C2
:105260008AE0C82ED12CE12CF12CCA01B901A7018A
:1052700096010E9415F0605D609366048EE2809353
:105280006704C501B401A70196010E9415F0C62F5D
:10529000CA01B901A70196010E9415F0605D6093F3
:1052A0006804C05DC093690485E694E074CF60E053
:1052B00070E080EA90E495CFB094A09490948094AC
:1052C000811C911CA11CB11C6DE2C0CF9C0197FFF9
:1052D00026C0EE27FF27E81BF90B2D398FEF380783
:1052E0000CF05DC08DE280936604CF0164E670E04F
:1052F0000E9401F0CB012AE030E0B9010E9401F0E8
:10530000805D80936704CF01B9010E9401F0CB0159
:10531000B9010E9401F0805D809368042AC0283E94
:1053200083E03807B4F1C90168EE73E00E9401F030
:10533000CB01EAE0F0E0BF010E9401F0805D8093C4
:105340006604C90164E670E00E9401F0CB01BF0170
:105350000E9401F0805D80936704C901BF010E9433
:1053600001F0CB01BF010E9401F0805D80936804D1
:10537000F901CF016AE070E00E9401F0805D809346
:10538000690486E694E008958DE237FDC5CF80E29A
:10539000C3CFF90180E2243631050CF0A4CF80E2BE
:1053A0008093660480936704EA30F1056CF38DE224
:1053B00037FF80E280936704CF016AE070E00E94CB
:1053C00001F0605D60936804D4CF9C0197FD2DC00F
:1053D00080E2243631055CF0C90164E670E00E9489
:1053E00001F0CB016AE070E00E9401F0805D8093E3
:1053F000670480E22A3031055CF0EAE0F0E0C901A0
:10540000BF010E9401F0CB01BF010E9401F0805D4D
:1054100080936804C9016AE070E00E9401F0805D39
:105420008093690487E694E00895319521953109C8
:105430008DE2DDCF9C0180E22436310558F0C901B0
:1054400064E670E00E94EDEFCB016AE070E00E943C
:10545000EDEF805D8093670480E22A30310558F0DB
:10546000EAE0F0E0C901BF010E94EDEFCB01BF010E
:105470000E94EDEF805D80936804C9016AE070E0EE
:105480000E94EDEF805D8093690487E694E00895C3
:1054900024E6829FC001112481589F4F6FEF70E076
:1054A0000E9401F0262F81E3643609F080E28093A8
:1054B000660490E22A3040F03AE0822F632F0E9487
:1054C000D3EF0E94D3EF905D90936704822F6AE040
:1054D0000E94D3EF905D9093680485E28093690405
:1054E00086E694E00895FC01A081B1811C92A2811E
:1054F000B3818C918F5F8C930280F381E02D90813A
:105500008CE0989F800D1124E3ECFFE013AE84AF94
:1055100008956091150270911602072E000C880BF9
:10552000990B0E9462E62AE037ED43E25CE30E94B9
:10553000C1E62091950430919604409197045091D2
:1055400098040E94C1E6609366027093670280939C
:10555000680290936902089580917607811104C0D2
:10556000809151078093CD070895CF93DF93EC018D
:10557000CB01BA010E9462E620E030E0A9010E945E
:10558000C6EC0E9432EE79836883DF91CF91089553
:105590000E9462E620E030E0A9010E94C6EC0E9471
:1055A00032EECB010C94E52980917607811104C07D
:1055B000809151078093CD0708958091141188231D
:1055C000C1F0815080931411E3E6FFE0882351F08D
:1055D0008150990B2BE1289FF001299FF00D112498
:1055E000EA5FFF4E8BE1A8E4BFE001900D928A953F
:1055F000E1F720911411211105C080911E118062E4
:1056000080931E1181E090E0A0E0B0E0211103C082
:1056100080E090E0DC018093640790936507A0939D
:105620006607B093670710925C0781E08093740768
:1056300083E0809355020895CF93DF93EC01CB0173
:10564000BA010E9462E620E030E0A9010E94C6ECA7
:105650000E9439EE79836883DF91CF9108950E948B
:1056600062E620E030E0A9010E94C6EC0E9439EE1B
:10567000CB010C941A2ACF93DF93EC01CB01BA0132
:105680000E9462E629EC38EC48EC5EE30E94C0ED33
:1056900020E030E040E05FE30E94C6EC0E9439EE7B
:1056A0006883DF91CF9108950E9462E629EC38EC7F
:1056B00048EC5EE30E94C0ED20E030E040E05FE3B4
:1056C0000E94C6EC0E9439EE862F0C94482AE09185
:1056D000760786E0E802F0011124E756FB4F80913F
:1056E000510790E0958384830895CF93DF93EC0175
:1056F000CB01BA010E9462E620E030E040E251E4D2
:105700000E94C0ED20E030E0A9010E94C6EC688351
:1057100079838A839B83DF91CF910895CF93DF9321
:10572000EC01CB01BA010E9462E62AE037ED43E2C8
:105730005DE30E94C0ED20E030E0A9010E94C6ECCC
:105740000E9439EE688379838A839B83DF91CF91AE
:105750000895CF93DF93EC01CB01BA010E9462E67A
:1057600020E030E0A9010E94C6EC688379838A8337
:105770009B83DF91CF910895CF93DF93EC01CB0111
:10578000BA010E9462E620E030E0A9010E94C6EC66
:10579000688379838A839B83DF91CF910895CF9328
:1057A000DF93EC01CB01BA010E9462E62AE037EDFB
:1057B00043E25DE30E94C0ED20E030E0A9010E94D9
:1057C000C6EC688379838A839B83DF91CF910895A8
:1057D000CF93DF93EC01CB01BA010E9462E620E097
:1057E00030E048EC52E40E94C0ED20E030E0A90136
:1057F0000E94C6EC688379838A839B83DF91CF9173
:105800000895CF92DF92EF92FF92CF93DF9300D073
:105810001F92CDB7DEB70E9462E620E030E048EC90
:1058200052E40E94C0ED20E030E0A9010E94C6ECE5
:105830006B017C0120E030E0A9010E945BE62DEBCA
:1058400037E346E055E387FF04C02DEB37E346E03E
:1058500055EBC701B6010E94C6EC69837A838B833E
:105860009C83CE0101960E942C280F900F900F90E0
:105870000F90DF91CF91FF90EF90DF90CF90089540
:10588000CF93DF93EC01CB01BA010E9462E620E0E6
:1058900030E04AE754E40E94C0ED20E030E0A90186
:1058A0000E94C6EC688379838A839B83DF91CF91C2
:1058B00008950C94B7250C94B7250C94B7250C9437
:1058C000B725CF93DF9300D01F92CDB7DEB70E94EC
:1058D00039EE0E9460E669837A838B839C83CE01D4
:1058E00001960E942D270F900F900F900F90DF913F
:1058F000CF9108950E9462E62AE037ED43E25DE32E
:105900000E94C0ED20E030E0A9010E94C6EC0C949A
:10591000612C8F929F92AF92BF92CF92DF92EF92C3
:10592000FF92CF936B017C0120E030E0A9010E943F
:105930005BE687FDAAC06DEB77E386E095E3A70100
:1059400096010E94C6EC6B017C0120E030E0A901C9
:105950000E945BE687FF9EC0C701B601905820E019
:1059600030E040E251E40E94C1E620E030E040E255
:1059700051E40E94C1E620E030E040EA50E40E9499
:10598000C6EC20E030E040E251E40E94C0ED0E940D
:1059900032EE6B017C0180E28093630460E280E17F
:1059A000C81687E2D806E104F1048CF0C701B601FD
:1059B00020E137E240E050E00E9415F0CA01B90151
:1059C0002AE030E040E050E00E9415F0605D609316
:1059D000640460E288EEC81683E0D806E104F104AE
:1059E0008CF0C701B60128EE33E040E050E00E94A1
:1059F00015F0CA01B9012AE030E040E050E00E9411
:105A000015F0605D6093650460E284E6C816D10419
:105A1000E104F1048CF0C701B60124E630E040E077
:105A200050E00E9415F0CA01B9012AE030E040E0E0
:105A300050E00E9415F0605D609366048AE0882E55
:105A4000912CA12CB12CC701B601A50194010E9493
:105A500015F0C62FCA01B901A50194010E9415F0E5
:105A6000605D609367048EE280936804C05DC093BC
:105A7000690483E694E0CF91FF90EF90DF90CF90A0
:105A8000BF90AF909F908F9008956DEB77E386E085
:105A900095EB55CF20E030E040E251E4C701B6017C
:105AA00062CF0E9462E620E030E040E251E40E94D2
:105AB000C0ED20E030E0A9010E94C6EC0C94892CD6
:105AC000CF92DF92EF92FF92CF93DF9300D01F929D
:105AD000CDB7DEB76B017C0120E030E0A9010E9468
